S00C00004C6173742E7372656384
S11300000C942A000C9447000C9447000C9447006D
S11300100C9447000C9447000C9447000C94470040
S11300200C9447000C946C000C9447000C9447000B
S11300300C9447000C949C010C9447000C94DA0136
S11300400C9447000C9447000C9447000C94470010
S11300500C94470011241FBECFE5D8E0DEBFCDBF0E
S113006010E0A0E6B0E0E6E3F5E002C005900D92F2
S1130070A436B107D9F720E0A4E6B0E001C01D9290
S1130080A03BB207E1F70E9496010C9499020C94EC
S11300900000CF92DF92EF92FF928CB5CDB4D12CB9
S11300A0E12CF12CFE2CED2CDC2CCC24C82A209144
S11300B06C0030916D0040916E0050916F00AFEF75
S11300C0BFEF0E9459026C0D7D1D8E1D9F1DFF9078
S11300D0EF90DF90CF9008951F920F920FB60F927A
S11300E011248F939F93AF93BF9380916C00909151
S11300F06D00A0916E00B0916F000196A11DB11D1D
S113010080936C0090936D00A0936E00B0936F0089
S1130110BF91AF919F918F910F900FBE0F901F9041
S113012018951F93CF93DF9300D000D01F92CDB7C3
S1130130DEB71FBC11E01EBD89B7846089BF789407
S11301401DBC1CBC83E38A8319821B8288ED8C83CB
S113015086E88D83CE0101960E94120210936300FB
S11301608FEF87BB0F900F900F900F900F90DF9140
S1130170CF911F9108951F93CF93DF9381E690E071
S11301800E9473029C01215031092830310558F432
S1130190C90121E030E0A90102C0440F551F8A952E
S11301A0E2F748BB02C08FEF88BB809163008130C7
S11301B0D1F030F08230F1F1833009F473C0B2C071
S11301C01ABA4091A2005091A30089B390E0909391
S11301D0A3008093A20021E04817590709F420E006
S11301E0209363009FC0C0916B00D0E00E9449003F
S11301F0CC0FDD1FCC0FDD1FC059DF4F688379831F
S11302008A839B831ABAE0916B00F0E0E856FF4FB3
S11302108091A200808380916B008F5F80936B003C
S113022080916B008A3010F082E001C080E08093FE
S1130230630078C010926B0010E032C0A4E6B0E016
S113024080E48C93E12FF0E0CF0188569F4FEC01BE
S1130250888111968C931197EE0FFF1FEE0FFF1FED
S1130260E059FF4F808191812281338112963C9322
S1130270129713962C93139714969C931497159690
S11302808C9315978BE316968C93169767E070E022
S1130290CD010E941E020E943D028823E1F31F5FEC
S11302A01A3060F288E081BB82BB61E070E080E6D6
S11302B090E00E9430020E944B028823E1F3809177
S11302C06000873491F71092630088E081BB82BBA1
S11302D061E070E081E690E00E943002809163006A
S11302E0811120C01DBC1CBC10926C0010926D00CA
S11302F010926E0010926F0080E090E010C0FC013C
S1130300E856FF4F1082FC01EE0FFF1FEE0FFF1F98
S1130310E059FF4F108211821282138201968A30B3
S113032091056CF3DF91CF911F9108950E94910084
S113033078940E94BB00FDCF1F920F920FB60F92CC
S113034011242F933F934F935F938F939F93EF9336
S1130350FF93F8948CB14091A4005091A500209192
S1130360A6003091A70042175307B0F48032A1F0E1
S11303702091A4003091A500E091A800F091A9007B
S1130380E20FF31F80838091A4009091A500019651
S11303909093A5008093A4007894FF91EF919F918E
S11303A08F915F914F913F912F910F900FBE0F90BE
S11303B01F9018951F920F920FB60F9211242F932E
S11303C03F938F939F93EF93FF93F8948091AA00A8
S11303D09091AB0001969093AB008093AA0020917A
S11303E0AA003091AB008091AC009091AD00281729
S11303F0390760F48091AA009091AB00E091AE00BF
S1130400F091AF00E80FF91F80818CB97894FF91C7
S1130410EF919F918F913F912F910F900FBE0F906D
S11304201F901895FC01808180BD818189B98281EA
S11304308BB983818AB9848180BD08959093AF007C
S11304408093AE007093AD006093AC001092AB004B
S11304501092AA005D9BFECFFC0180818CB90895A7
S11304609093A9008093A8007093A7006093A600BE
S11304701092A5001092A40008954091AA005091F2
S1130480AB002091AC003091AD0081E042175307DE
S113049008F480E008954091A4005091A5002091B3
S11304A0A6003091A70081E04217530708F480E0CA
S11304B008950E946402A59F900DB49F900DA49F7F
S11304C0800D911D11240895A29FB001B39FC00116
S11304D0A39F700D811D1124911DB29F700D811D6C
S11304E01124911D0895FC0188279927E8942191EE
S11304F02032E9F3293010F02E30C8F32B3241F0CA
S11305002D3239F4689404C00E949102820F911D27
S1130510219120532A30C0F31EF4909581959F4F6A
S113052008957AE0979F902D879F802D910D112437
S10905300895F894FFCFCA
S10705364E3000013E
S9030000FC
